:020000040000FA
:10000000B803001071010000790100007B010000BD
:100010007D0100007F010000810100000000000060
:10002000000000000000000000000000830100004C
:100030008501000000000000870100008901000028
:100040008B0100008B0100008B0100008B01000080
:100050008B010000410A00008B0100008B010000B1
:100060008B0100008B0100008B0100008B01000060
:100070008B0100008B0100008B0100008B01000050
:100080008B0100008B0100008B0100008B01000040
:100090008B010000510500008B0100008B01000066
:1000A0008B0100008B0100008B0100008B01000020
:1000B0008B0100008B0100008B0100008B01000010
:1000C0008B0100008B0100008B01000000F002F8A2
:1000D00000F03FF80AA090E8000C82448344AAF1A3
:1000E0000107DA4501D100F034F8AFF2090EBAE8A1
:1000F0000F0013F0010F18BFFB1A43F0010318475C
:10010000C41A0000E41A0000103A24BF78C878C16D
:10011000FAD8520724BF30C830C144BF04680C600D
:10012000704700000023002400250026103A28BF55
:1001300078C1FBD8520728BF30C148BF0B60704759
:10014000642900F01181002070471FB51FBD10B554
:1001500010BD00F0C2F91146FFF7F7FF00F08EFD69
:1001600000F0E0F903B4FFF7F2FF03BC00F0E8F998
:100170000948804709480047FEE7FEE7FEE7FEE73B
:10018000FEE7FEE7FEE7FEE7FEE7FEE70448054977
:10019000034A054B704700008D070000CD000000AA
:1001A000B8010010B8030010B801001053EA020CA7
:1001B00000F069802DE9F04B4FF00006002B1FBFC7
:1001C000B3FA83F503FA05F424FA05F65E4012BF8C
:1001D0001643B2FA82F502FA05F4C5F120051EBFF6
:1001E00022FA05FC44EA0C04203556EA044C4FEA96
:1001F000144418BF641C4FF000084FF000099042EF
:1002000071EB030C39D3002919BFB1FA81F701FA58
:1002100007F6B0FA80F700FA07F6C7F120071EBF0D
:1002200020FA07FC46EA0C062037B6FBF4FCA7EBE5
:100230000507103F07F01F0BCBF120060CFA0BFB54
:100240002CFA06F644BFB3460026202FA4BF5E4614
:100250004FF0000B5BEA060C08BF4FF0010B19EBE7
:100260000B09ABFB027C48EB0608C01B06FB02CC6B
:100270000BFB03CC71EB0C01C1E70B460246414678
:100280004846BDE8F08B13B54FF000004FF0000179
:10029000AFF30080BDE81C40704700000FB41CB5F0
:1002A000074B06AA7B4469460090059800F013F8B6
:1002B0000020694600F00CF91CBC5DF814FB00003E
:1002C00029020000704770477047000001694A1C0E
:1002D00002610878704700B58FB0CDE90131002187
:1002E000059105497944CDE903101146684600F0AF
:1002F00007F80FB000BD0000E5FFFFFFFFFFFFFFA5
:100300002DE9F0410E460446002020622046E168B7
:10031000884730B3252805D0D4E901219047206AC9
:10032000401CF2E7E168204600278847050018D006
:10033000A5F14100192802D820354FF40067324654
:10034000294620462760FFF7FBFE40B1012804D074
:10035000F61D26F007060836D8E7361DD6E72846EC
:10036000DAE7206ABDE8F0812DE9F0410646002475
:1003700010687529314616A510D0AFF3008000280B
:1003800002DA404213A507E031688A0701D512A5B9
:1003900002E0490704D511A5012401E0AFF3008074
:1003A00000210A2206F1240709E0B0FBF2FCB0FBB1
:1003B000F2F302FB1C00303078541846491C002828
:1003C000F3D123462A463046BDE8F04100F027B875
:1003D000000000002D0000002B00000020000000A5
:1003E00010B5431C02E010F8011B71B18107FAD16E
:1003F0004FF0013202C88C1A8C4314EAC211F9D0B2
:10040000C01A0A0603D0C01E10BDC01A10BD0A04CF
:1004100001D0801E10BD0902FCD0401E10BD2DE988
:10042000F0470D4699469246044600F124080168BB
:10043000880604D5E06921F01001216000E0012068
:10044000A84201DD471B00E00027A1697A1902EBF1
:100450000900081AA0612078C00602D42046AFF334
:100460000080002608E0D4E901211AF80600904730
:10047000206A401C761C20624E45F4DB2078C006C2
:100480000AD52046AFF3008006E0D4E901213020F0
:100490009047206A401C2062381EA7F10107F4DC57
:1004A00007E0D4E9012118F805009047206A401CB4
:1004B0002062281EA5F10105F3DC2046AFF3008081
:1004C0002078000602D50220BDE8F0870120FBE776
:1004D0000A6802F8010B0A607047754600F02CF8B4
:1004E000AE4605006946534620F00700854618B021
:1004F00020B5FFF74BFEBDE820404FF000064FF05F
:1005000000074FF000084FF0000B21F00701AC4648
:10051000ACE8C009ACE8C009ACE8C009ACE8C00967
:100520008D46704710B50446AFF300802046BDE805
:100530001040FFF717BE000000487047540100103C
:1005400001491820ABBEFEE72600020070470000FC
:1005500010B50D480068401C0B49086008460BA107
:1005600002680B48FFF79AFE00BF094800F006FB3F
:100570000028FADB00BF00F063FB0028FBD101205C
:100580000449086010BD00000000001025640D0043
:1005900004000010AC8002400F48006920F0030006
:1005A0000D49086100200D49086401200C490860CC
:1005B0000B49B039C1F8B4001520002809DB00F060
:1005C0001F02012191404209920002F1E022C2F88B
:1005D000001100BF7047000000C0024000C00920A9
:1005E000B08002402DE9F04764480068C0F3016024
:1005F00003287DD161488430006800F0030030B1E9
:10060000012830D0022859D003282BD100E000BFA8
:100610005A480068C0F30740441C022157488838F4
:10062000D0F88800C0F30E00401CA1FB0001544B21
:100630004FF0000CA0FB037901FB039100FB0C11B0
:10064000224663463846FFF7B1FD05464B487C30ED
:100650000068C0B2441C224600232846FFF7A6FDCE
:100660004849086056E045480068C0F30740441C0C
:10067000022142488838D0F88800C0F30E00401CA0
:10068000A1FB0010404A4FF0000CA1FB027900FBD7
:10069000029001FB0C01224663463846FFF786FDB7
:1006A000054636487C300068C0B2441C2246002310
:1006B0002846FFF77BFD334908602BE02F48006890
:1006C000C0F30740441C02212C488838D0F8880029
:1006D000C0F30E00401CA1FB00124FF400400023A9
:1006E000A1FB007902FB009001FB0301224600E020
:1006F00011E03846FFF75AFD054620487C30006877
:10070000C0B2441C224600232846FFF74FFD1D4976
:10071000086000BF30E019488430006800F0030032
:1007200030B1012810D0022819D0032823D100E0CD
:1007300000BF12487C300068C0B2401C1049B1FBB9
:10074000F0F01049086016E00C487C300068C0B238
:10075000401C0D49B1FBF0F00A4908600BE0074866
:100760007C300068C0B2401C4FF40041B1FBF0F097
:100770000449086000BF00BFBDE8F08788C00F4093
:1007800000093D0050000010001BB700202019494F
:1007900008601948D0F8A00100F0200030B100BF77
:1007A0001448006800F040000028F9D003201149E7
:1007B0009C39086040201049C1F8A80100200D496B
:1007C0000C31086001200B49943908600020091F92
:1007D00008600A480849C431086000200649C1F889
:1007E000C8010846006820F4704040F4804008606A
:1007F00070470000A0C10F4000C00F40DE872804F2
:100800002DE9F04F8FB004460D464FF080400D901B
:100810004FF0130B00200C9000260127062195FBBA
:10082000F1F1284605EBD0725210A5EB420201EB24
:1008300082010C9105EBD0714910032291FBF2F378
:1008400002FB1311012902D0022908D103E00C9800
:1008500008300C9003E00C9818300C9000BF00BFDB
:100860006C48007B00F0D0010C980844694908737B
:100870000846007B40F080000873642C03D34FF2DD
:100880002440844201D94FF41654200100F0C6FCE4
:1008900002460B46CDE9060100205F4900F0E4FA6C
:1008A000CDE90A01200100F0B9FC02460B46CDE972
:1008B00000010020584900F0D7FA0022574BCDE93B
:1008C000020100F01DFACDE9040100F061FC07907F
:1008D00000F08DFCCDE90801DDE90A2300F01CFCE5
:1008E00004D120014E49B1FBF0FB84E0DFF83491E4
:1008F00045E0200100F0D2FF4946099001F016F8CA
:1009000001460A90484800F0E7FE0B9000F0A6FF71
:100910008346210101FB0BF000F080FC02460B46F0
:10092000CDE9080100203C4900F09EFACDE90A011A
:1009300000F0B4F98046404600F034FE4FF06632D5
:100940003A4BCDE90A0100F07DFC0AD2404600F0A6
:1009500029FE374A374BCDE90A0100F003FD00D2EA
:1009600013E0484600F01EFE314A334BCDE9080142
:1009700000F0C6F9CDE90A0100F090F981464FF088
:100980008041484600F09EFFB3D300BF012630E00F
:1009900001272BE0384600F081FF0990304600F037
:1009A0007DFF0890099900F097FE4FF07E510A9064
:1009B00000F024FE41460B9001F084F882460021AD
:1009C000504600F07FFF04D251461C4800F0AEFFB5
:1009D000824650460D9900F075FF06D2CDF834A03E
:1009E00006EB07100B49283108707F1C102FD1D35C
:1009F000761C0F2ECCD3074981F800B04FEA1B209C
:100A000008710846007B00F07F0008730FB0BDE856
:100A1000F08F000000C0004060E346410000E03F6E
:100A2000C0C62D00CDCC8C3F001B374A6666FE3F0A
:100A30009A9999999999F13F9999B93F000080BF86
:100A40002948816801F00200022830D1FF20274A9E
:100A50001070274A1268501CC21700EB5262D21164
:100A6000A0EBC212234B1B689A421CD0204A12688A
:100A7000501CC21700EB5262D211A0EBC2121C4BE9
:100A80001A601D481A461268805C174A10770020C9
:100A9000194A1B68D054FF20184A10701248007F72
:100AA000114A10701FE00020144A10701BE001F082
:100AB0000400042817D10C480078114A114B1B6818
:100AC000D05410480068104A10600E4A1268501C3A
:100AD000C21700EB5262D211A0EBC212094B1A608E
:100AE000FF200A4A1070704700C000403900001013
:100AF000400000103C000010540000103A000010AC
:100B0000D4000010440000104C0000103800001009
:100B10001748006840F008001549C439C1F8C400FE
:100B20001448006820F0F000124908600846006888
:100B300040F05000086083200F49087300200871BE
:100B400013200870032008730720087202204860F1
:100B50000520002809DB00F01F0201219140420915
:100B6000920002F1E022C2F8001100BF70470000BD
:100B7000C4C00F4000C0024000C0004070B5054630
:100B80002846FFF72DFC064615B96FF0020070BD30
:100B9000802E02DB6FF00100F9E724490968314437
:100BA000481CC11700EB5161C911A0EBC111204ACB
:100BB000515C11B14FF0FF30E9E7002410E0295DEE
:100BC0001B481A4A1268815418490968481CC11701
:100BD00000EB5161C911A0EBC111144A1160641CF2
:100BE000B442ECDB13480078E8B913490968481CA3
:100BF000C11700EB5161C911A0EBC1110E4A116080
:100C00000B4811460968405C0C49087700200849E8
:100C100012688854FF20074908700848007F074978
:100C200008700220B3E70120B1E700003C0000108B
:100C3000540000103A0000104000001000C00040B6
:100C40000B480078FF2810D10A490968481CC117D1
:100C500000EB5161C911A0EBC111074A1268914222
:100C600001D1022070470120FCE70020FAE70000D4
:100C70003A000010400000103C000010FFF786FD15
:100C8000FFF7B0FCFFF744FF12214FF46140FFF77C
:100C9000B7FDFFF781FC00BFFEE7000021F0004236
:100CA000A2F16052B2F5801F01F0004328BFD2F1DB
:100CB0007F6C0BD95FEA001C43EAC20242EB507022
:100CC00018BF704728BF20F001007047B2F5801FA1
:100CD000BCBF184670474FEA410C1CF5001F02D2FA
:100CE000084600F0EABE70B500F0E8FA000000899E
:100CF000FFF7F6BF4FF00040A0F5800070470000FE
:100D000010B591EA030F48BF83F0004300F16883F8
:100D1000841A71EB030C05D2121943EB0C03001B70
:100D200061EB0C01DFF824E14FEA1154A4EB135CF2
:100D30001EEA430F18BF9EEA445F73D023EA0E03F6
:100D4000DCF1200E21EA045143F4801332D322FA5D
:100D50000CFE10EB0E0023FA0CFE41EB0E01CCF161
:100D6000200E03FA0EFE10EB0E0051F10001B1F55A
:100D7000801FCCF1200E32D201EB045112FA0EF298
:100D8000BDE8104058BF7047401C38BF5FEA4202C0
:100D900018BF7047002814BF20F0010041F1000186
:100DA0004FEA410313F5001F38BF7047A1F1C0415E
:100DB00000F0D2BA012A43EB0302ACF1200CDCF1C3
:100DC0001F0E32BF4FF0000E23FA0CF310EB03009E
:100DD00041EB0451B4EB115FD0D0A1EB045101F50C
:100DE000801149085FEA300001EB04510ED350F145
:100DF000000038BF12FA0EFE08D1BDE81040C9E766
:100E0000401C38BF5FEA4202CAD1C3E7BDE81040C8
:100E10004FEA410313F5001F38BF7047A1F1C041ED
:100E200000F09ABA9EEA445F08D011EA5E0FBDE86E
:100E3000104004BF01F0004100207047BDE81040A1
:100E400070B500F03BFA00BF64FBBE3E0000E0FF5F
:100E5000491058BFC1F140415B1058BFC3F1404336
:100E60008B42EFF3008070472DE9C04130B4DFF8CA
:100E7000A0C23CEA111418BF3CEA131400F0EC8045
:100E800081EA03051CEA111444EAD57418BF1CEA70
:100E9000131500F0C780A4EB05044FF0004545EAA8
:100EA000C12145EAC32341EA505143EA525304F1B8
:100EB0007F74994204F500344FEAC0204FEAC22201
:100EC00008BF904200F09C804FEA13650FF2401675
:100ED000765D4FEA134506FB05F7C7F1807706FB01
:100EE00007F74FEAD737A7FB03687642C8F5803883
:100EF000A7FB06CE38BFA8F1010807FB08E64FF0B4
:100F0000000EA6FB028CE6FB03CEDCF1000CCEF15A
:100F1000004E38BFAEF1010EA6FB0C584FF0000793
:100F20004FF00005E6FB0E87A1FB08C6A0FB07CE2D
:100F300016EB0E0645F10005E1FB076515F1E04EE5
:100F40007EBFA4F580345FEA46066D4116F1800746
:100F500045F100054FEA17274FEA066647EA05679D
:100F6000A6F1DE46B6F1805F4FEA15251FD9384657
:100F700024F0010C05EBC471BCF1FE6F01EB0C1108
:100F800002D8F0BCBDE8008124425CBF01F5801EA0
:100F90009EEAC47F02D4F0BCBDE80081244238D46C
:100FA000F0BCA1F1C041BDE8004100F0D5B94FEA65
:100FB000D22242EA43524FEAD323A7FB02864FEAEA
:100FC000D02040EA415007FB03661EEA0E0F4FEAAD
:100FD000D12105FB026658BFA6EB0056B6EB0056C2
:100FE0004FEA520E4EEAC37E18EB0E0E56EB530E2E
:100FF000BDD518EB02085E417F1C55F10005B6E730
:101000004FF480154FF000074FF000064FF0000836
:10101000ADE7F0BC4FF0000001F1C04101F000412C
:10102000BDE8008111EA0C1F0CEA131500D00CE09A
:1010300013EA0C1F00F025804FF00000F0BC81EA9D
:10104000030101F00041BDE80081F0BCBDE80041B2
:1010500081EA030100F080B9F0BCBDE8004170B541
:1010600000F02CF9097EFC3E00F007B881EA03018C
:101070004FF0000001F00041704781EA030100F0E9
:101080006BB9F0BCBDE800414FF00000214970474A
:10109000FFFDFBF9F7F5F4F2F0EEEDEBE9E8E6E43D
:1010A000E3E1E0DEDDDBDAD8D7D5D4D3D1D0CFCDC4
:1010B000CCCBCAC8C7C6C5C4C2C1C0BFBEBDBCBBFD
:1010C000BAB9B8B7B6B5B4B3B2B1B0AFAEADACABF8
:1010D000AAA9A8A8A7A6A5A4A3A3A2A1A09F9F9ED2
:1010E0009D9C9C9B9A999998979796959594939384
:1010F000929191908F8F8E8E8D8C8C8B8B8A89891B
:10110000888887878685858484838382828181809D
:101110000000FF070000F87F51EA030C17D41CF50C
:10112000801F58BFBCF5801F00F10680994218BF90
:10113000704708BF9042704707D711F5801F58BF0E
:1011400013F5801F19D499427047894270471CF5E6
:10115000801F08D5BCF5801FF7D58B4218BF70479C
:1011600008BF824270474FF4001C1CEB410F38BF90
:101170001CEB430F01D28B42704770B500F09EF814
:10118000922449004FF000514FF08053FFF760BEAA
:101190004FEA41034FEA5353A3F58063D3F11E0393
:1011A000C8BFD3F1210C0CDD4FF0004242EAC1224E
:1011B00042EA505232FA03FC8CEAE17CACEBE1707B
:1011C0007047102BC4BF0020704703F5787CBCF13A
:1011D000FF3F04D06FF0004282EA2100704770B5F3
:1011E00000F06CF84992248000207047F2E710F07C
:1011F000004248BF4042B0FA80F310FA03F10AD02F
:10120000C3F11D0303F580634FEA415002EB035223
:1012100002EBD12170474FF000007047B0FA80F325
:1012200010FA03F10AD0C3F11D0303F580634FEAFE
:1012300041504FEA035202EBD12170474FF00000BA
:101240007047000051EA030C17D41CF5801F58BFEB
:10125000BCF5801F00F10680994218BF704708BF97
:101260009042704707D711F5801F58BF13F5801FB4
:1012700019D499427047894270471CF5801F08D5E0
:10128000BCF5801FF7D58B4218BF704708BF82425C
:1012900070474FF4001C1CEB410F38BF1CEB430F91
:1012A00001D28B42704770B500F008F892244900D3
:1012B0004FF000514FF08053FFF7CABD0EF1020E00
:1012C0002EF0030E5EF8046B364205D4012A43EB80
:1012D000030515F5001F12D8012841EB010C1CF580
:1012E000001F0CD80ED14FEAD17C15F5001F0CEB76
:1012F0004C0C0CF1020C08BF4CEBD37C04E04FF01B
:10130000080C01E04FEAD37C0CEB4C0526FA05F6FD
:1013100006F00706B6F1040C06D20EEB860CBDE80B
:1013200070404CF0010C6047DFE80CF0090B020242
:101330004FF000414FF00000A1F5002170BD1946AB
:101340001046012851EB010418BFD4F5001484BFE6
:10135000002001F0004170BD0808A0F500114FEA1F
:101360003101704753EA010C17D41CF5801F58BF98
:10137000BCF5801F00F106808B4218BF704708BF84
:101380008242704707D713F5801F58BF11F5801FA1
:1013900019D48B4270479B4270471CF5801F08D5BB
:1013A000BCF5801FF7D5994218BF704708BF90421F
:1013B00070474FF4001C1CEB430F38BF1CEB410F70
:1013C00001D2994270470FB40CBC03BCFFF76BBF4E
:1013D00010B591EA030F48BF83F000433FF598AC86
:1013E000841A71EB030C07D212198CF0004C43EBFA
:1013F0000C03001B61EB0C01DFF8A4E14FEA115470
:10140000A4EB135C1EEA430F18BF9EEA445F00F092
:10141000B08023EA6E03524221EA0451C3EB6E030B
:1014200038BF5B1EDCF1200E25D322FA0CFE10EB38
:101430000E0043FA0CFE41EB0E01CCF1200E03FA34
:101440000EFE10EB0E0051F10001CCF1200E29D45C
:1014500012FA0EF201EB0451BDE8104058BF70477C
:10146000401C1CBFB2F1004F704700280CBF491C44
:1014700020F00100704712EB020E43EB030218BF8D
:101480004FF0010E4EEA4202ACF1200CDCF11E0ED0
:1014900054D943FA0CFE10EB0E0051F1FF31CCF1A0
:1014A0001E0ED5D50EF1010E12FA0EFE404141EB93
:1014B000010101EB445C5FEA5C5C10D910EBDE706B
:1014C00001EB045138BFBEF1004FBDE8104018BF1A
:1014D000704700280CBF491C20F00100704730D233
:1014E0004FEAD42C11F5001124F400641BD0B1FA9A
:1014F00081F20B3AA41AA41ED2F12003914030FAD3
:1015000003F31943904001EBCC71002C01EB045123
:10151000BDE81040A8BF704701F1C0414FF0000086
:1015200001F000417047B0FA80F310FA03F100D1E6
:1015300010BDE41A173C4805C90AE4E701EB045161
:1015400010BD491001EB0451BDE810404FEA3000D6
:1015500002E04FF0000170474A0008BF0042F8D097
:10156000B2F5001F28BF704701F000414FF00000A6
:1015700070479EEA445F07D011EA5E0FBDE8104055
:1015800004BF002100207047BDE8104070B5FFF790
:1015900095FE00BF40DFF63E83F0004110467047E5
:1015A0000000E0FF43004FEAD30C4FEA3C0C4340FD
:1015B0001FBF40070CF1605113F0FE4F70471CF045
:1015C000006F03D100200CF0004170470CF0004385
:1015D00043EA507010B540EACC0000F028FA00BF92
:1015E000000000924FEA0001FFF7B6BE4FF0004145
:1015F0004FF00000A1F500217047000090EA010FB4
:1016000048BF81F0004100F16E82421A3CBF801A4F
:1016100089184FEAD0524FF07F4C1CEA410FA2EBE1
:10162000D15318BF9CEA026F00F03B804FF0004C92
:101630004CEA00204CEA012121FA03FC10EB0C0CCF
:101640001ED202F1FF325FEA1C2040EBC25038BFCD
:1016500070471CF07F0F4FEA400C18BFBCF17F4F62
:1016600038BF7047C3F12003994008BF20F0010044
:10167000BCF17F4F38BF7047A0F1C04000F01DBAE9
:101680004FEA3C00000A40EBC25028BF1CF0FF0F9D
:101690004FEA400CE6D018BFBCF17F4F38BF70470F
:1016A000EAE79CEA026F05D010EA5C0F08BF00F081
:1016B0000040704710B500F0BAF900BF64FBBE3EB1
:1016C000401058BFC0F14040491058BFC1F14041DF
:1016D0008142EFF3008070474FF47F0C1CEAD01278
:1016E0001EBF1CEAD11392EA0C0F93EA0C0F00F014
:1016F000858090EA010F48BF42F4807240F4000CEC
:1017000041F400002CF07F4120F07F4000B5814281
:10171000A2EB03020FF2081CACEB504EC0F100002C
:101720009EF800E04FEA4E0E00FB0EFC38BF490069
:101730004FEA2C1C02F5FA020CFB0EF34FEACE1E08
:101740004FEA112C4FEAC1210EEB635E42EB2242BD
:101750000EFB0CFC4FEA1C5300FB03114FEA112C4B
:101760004FEA01310EFB0CFC4FEADC4C00FB0C1184
:10177000C14228BF09184CEB03335DF804EB10EBB2
:10178000410143EBC250B2F57C0F38BF704729D5F9
:1017900012F0F00F1CBF00F1C04000F00040704795
:1017A000008182838485868788898B8C8D8E8F913A
:1017B0009293959697999A9C9D9FA0A2A3A5A7A85E
:1017C000AAACAEB0B2B3B5B7B9BCBEC0C2C5C7C98A
:1017D000CCCED1D4D7D9DCDFE2E6E9ECF0F3F7FAEE
:1017E000FE0000004FEA400C0CF1807CBCF17E4F03
:1017F00028BF7047B0F1C04000F05FB990EA010F18
:101800000CEAD11348BF42F48072624538BF634589
:1018100007D213F47F0F16D080EA010000F00040D9
:10182000704710B500F003F9097EFC3E00F005B8E2
:1018300080EA010000F00040704780EA010000F0FB
:10184000004000F03AB912F47F0F04BF024870471D
:1018500080EA010000F031B90000C07FC10DD1F174
:101860009E0206DB4FEA002343F0004323FA02F016
:101870007047004207D54FEA4001B1F1FE4F02D256
:101880004FF00000704710B500F0D1F84992248065
:10189000002070476FEA200070470000B0FA80F324
:1018A00010FA03F2C3F19D030AD0D90501EB12200F
:1018B000530638BF704700F1010008BF20F0010057
:1018C0007047000050EA010C00F113801CF5000F76
:1018D00058BFBCF5000F01D48842704707D710F5F8
:1018E000000F58BF11F5000F15D488427047894288
:1018F00070471CF5000F04D5BCF5000FF7D58142E9
:1019000070474FF0807C1CEB400F38BF1CEB410F41
:1019100001D28142704710B500F089F89224490045
:101920004FF000504FF08051FFF7CABE4FF47F0CCC
:101930001CEAD0121EBF1CEAD11392EA0C0F93EAE4
:101940000C0F00F0478090EA010F48BF42F480720C
:101950004FF0004C4CEA00204CEA012102EB03025C
:10196000A0FB0113A2F50002002918BF43F00103F8
:101970005B0028BF4FEA330342EB22425FEA132C9D
:101980004CEBC2502EBFBCEB436FB2F57C0F7047DF
:101990004FEA036CBCF1004F08BF20F00100B2F524
:1019A0007C0F38BF70470BD582F0FF0212F5803FE5
:1019B000C8BF704700F1C040D8BF00F0004070477A
:1019C00000F5000C5FEA4C0C48BF7047B0F1C04016
:1019D00000F073B890EA010F0CEAD11348BF42F44B
:1019E0008072624538BF634504D280EA010000F08E
:1019F0000040704710B500F01AF800BF8900013EA2
:101A000000F007B800F009B85FEA410C5FEA1C6C0F
:101A100008D080EA010000F050B85FEA400C5FEAAD
:101A20001C6CF6D14FF00040A0F5800070470EF11D
:101A3000020E2EF0030E5EF8044B244204D44FEA4B
:101A40004102B2F17F4F11D84FEA4003B3F17F4F0B
:101A50000CD80ED14FEAD07CB2F17F4F0CEB4C0C7E
:101A60000CF1020C08BF4CEBD17C04E04FF0080CE9
:101A700001E04FEAD17C0CEB4C0324FA03F404F0B0
:101A80000704B4F1040C06D20EEB840CBDE8104040
:101A90004CF0010C6047DFE80CF0070802024FF041
:101AA0000040A0F5800010BD0846420018BFD2F1EA
:101AB000807288BF00F0004010BDFF2141EAD05085
:101AC000C005704780F0004090EA010F7FF59DADA2
:101AD00081F0004100F007B890EA010F48BF81F0A3
:101AE00000413FF592AD421A04D882F00042A0EBCB
:101AF000020011444FEAD0524FF07F4C1CEA410FD4
:101B0000A2EBD15318BF9CEA026F4AD04FF0004CB1
:101B10004CEA00204CEA012121FA03FCB0EB0C0C4A
:101B20000FD412F0FE0F36D05FEA4C001DD5001224
:101B300040EBC25038BF70471CF03F0F18BF7047D2
:101B40000BE0A2F101025FEA1C2040EBC25038BF5B
:101B500070471CF07F0F18BF7047C3F120039940F6
:101B600014BF401E20F00100704780084FEA122386
:101B700008BF7047B0FA80FCA2EB0C02CCF1280C35
:101B800060FA0CF093EA122F04BF00EBC2507047CA
:101B90004FEAC3707047130A5FEADC1008BF704752
:101BA000F6E79CEA026F04D010EA5C0F08BF002041
:101BB000704710B5FFF73BFF40DFF63E81F0004075
:101BC00070470000E41B00000000001054000000FB
:101BD00008010000381C00005400001064030000DD
:101BE000240100000000000068656C6C6F000000BC
:101BF00000000000000000000000000000000000E5
:101C000000000000000000000000000000000000D4
:101C100000000000000000000000000000000000C4
:101C200001000000000000000000000000000000B3
:081C300000000000C0C62D00F9
:040000050000017185
:00000001FF
