:020000040000FA
:1000000060040010890100009101000093010000CC
:100010009501000097010000990100000000000018
:100020000000000000000000000000009B01000034
:100030009D010000000000009F010000A1010000E0
:10004000A3010000A3010000A3010000A301000020
:10005000A3010000151C0000A3010000A301000083
:10006000A3010000A3010000A3010000A301000000
:10007000A3010000A3010000A3010000A3010000F0
:10008000A3010000A3010000A3010000A3010000E0
:10009000A3010000A3010000A3010000A3010000D0
:1000A000A3010000A3010000A3010000A3010000C0
:1000B000A3010000A3010000A301000049150000F6
:1000C000A3010000A3010000A301000000F002F85A
:1000D00000F04AF80AA090E8000C82448344AAF198
:1000E0000107DA4501D100F03FF8AFF2090EBAE896
:1000F0000F0013F0010F18BFFB1A43F0010318475C
:100100006037000080370000103A24BF78C878C1FB
:10011000FAD8520724BF30C830C144BF04680C600D
:10012000704700000023002400250026103A28BF55
:1001300078C1FBD8520728BF30C148BF0B60704759
:10014000662903F04083642900F00E810020704787
:100150001FB500F0CBF804000020002102F07AFA6D
:10016000E0601FBD10B510BD00F0CCFC1146FFF7DC
:10017000EFFF01F063FF00F0EAFC03B4FFF7F2FFCA
:1001800003BC00F02DFD00000948804709480047E6
:10019000FEE7FEE7FEE7FEE7FEE7FEE7FEE7FEE737
:1001A000FEE7FEE704480549034A054B7047000097
:1001B00061190000CD000000600200106004001012
:1001C0006002001053EA020C00F069802DE9F04B48
:1001D0004FF00006002B1FBFB3FA83F503FA05F4B6
:1001E00024FA05F65E4012BF1643B2FA82F502FA0F
:1001F00005F4C5F120051EBF22FA05FC44EA0C04F3
:10020000203556EA044C4FEA144418BF641C4FF0E2
:1002100000084FF00009904271EB030C39D300291C
:1002200019BFB1FA81F701FA07F6B0FA80F700FAC0
:1002300007F6C7F120071EBF20FA07FC46EA0C06A6
:100240002037B6FBF4FCA7EB0507103F07F01F0BA8
:10025000CBF120060CFA0BFB2CFA06F644BFB34692
:100260000026202FA4BF5E464FF0000B5BEA060C71
:1002700008BF4FF0010B19EB0B09ABFB027C48EBFD
:100280000608C01B06FB02CC0BFB03CC71EB0C0178
:10029000C1E70B46024641464846BDE8F08B13B520
:1002A0004FF000004FF00001AFF30080BDE81C40AC
:1002B000704700000FB41CB5074B06AA7B44694683
:1002C0000090059800F017FB0020694600F009F83F
:1002D0001CBC5DF814FB0000230000007047704751
:1002E00070470A6802F8010B0A60704700487047BF
:1002F0001C02001000487047FC010010FFFFFFFFC8
:100300002DE9F0410E460446002020622046E168B7
:10031000884730B3252805D0D4E901219047206AC9
:10032000401CF2E7E168204600278847050018D006
:10033000A5F14100192802D820354FF40067324654
:10034000294620462760FFF7FBFE40B1012804D074
:10035000F61D26F007060836D8E7361DD6E72846EC
:10036000DAE7206ABDE8F0812DE9F0410646002475
:1003700010687529314616A510D0AFF3008000280B
:1003800002DA404213A507E031688A0701D512A5B9
:1003900002E0490704D511A5012401E0AFF3008074
:1003A00000210A2206F1240709E0B0FBF2FCB0FBB1
:1003B000F2F302FB1C00303078541846491C002828
:1003C000F3D123462A463046BDE8F04100F027B875
:1003D000000000002D0000002B00000020000000A5
:1003E00010B5431C02E010F8011B71B18107FAD16E
:1003F0004FF0013202C88C1A8C4314EAC211F9D0B2
:10040000C01A0A0603D0C01E10BDC01A10BD0A04CF
:1004100001D0801E10BD0902FCD0401E10BD2DE988
:10042000F0470D4699469246044600F124080168BB
:10043000880604D5E06921F01001216000E0012068
:10044000A84201DD471B00E00027A1697A1902EBF1
:100450000900081AA0612078C00602D42046AFF334
:100460000080002608E0D4E901211AF80600904730
:10047000206A401C761C20624E45F4DB2078C006C2
:100480000AD52046AFF3008006E0D4E901213020F0
:100490009047206A401C2062381EA7F10107F4DC57
:1004A00007E0D4E9012118F805009047206A401CB4
:1004B0002062281EA5F10105F3DC2046AFF3008081
:1004C0002078000602D50220BDE8F0870120FBE776
:1004D00070472DE9FF4F0C461E464FF0FF378BB09B
:1004E000D2E90001DDF860800A908A46C1F30A551E
:1004F00005B93D46002108464FF00000BAF1000F53
:1005000000F4400005DA00EB80004FF4400101EAFE
:1005100050004FEA9059B9F1010F00DDB9460A9831
:1005200050EA4A000ED044F61050A5F2FF3545437C
:100530002F14B8F1000F1ED07542291E1EDDC9F11F
:1005400000021CE0B8F1010F4FF0000001D0302193
:1005500003E0F24305E02154401CB042FBDB30468F
:100560000022002121540B99C1F80880C1E9002024
:100570000FB0BDE8F08FBD1B6D1CDEE74A4600DA08
:10058000694206A800F050FA06AB93E8070003ABF7
:1005900083E8070050460A9900F029FB8DE8070020
:1005A000A0F500501F3800900398002D09DD42F29D
:1005B0001F014A46084403A90390684600F088FDDD
:1005C00008E0A0F500504A461F3803A9039068468A
:1005D00000F092FD8DE807000004000C03D04FF0FE
:1005E000FF30410800E01046B8F1000F03D00022B0
:1005F000009215461EE0751E05D400F08FF93032CA
:1006000062556D1EF9D5B3460122084302D000227F
:100610007F1C04E02078302801D100227F1E002AB0
:10062000099786D01DE0112D07DA00F077F93032F6
:1006300062556D1C50EA0102F5D1084302D00098C2
:10064000C8B10EE00021681E05E0235C625C6354C3
:100650002254401E491C8142F7DBAB46A81B401EBA
:100660000990002004F80B000B98099AC0F8088044
:10067000C0E9002B7CE711264FF0000859E72DE96F
:10068000F04F88460446D21D22F0070191B0D1E90F
:100690000001CDE90A0101F013FC02460B98C00FDE
:1006A00001D02D2007E02068810701D52B2002E032
:1006B000202101EAC000032A099001D0072A05DBA6
:1006C00003464146204600F06FF90BE12078800692
:1006D00001D5E06900E00620B8F1650F814606D03B
:1006E000B8F1660F18D0B8F1670F70D131E0002073
:1006F000B9F1110F009001DB112301E009F10103B1
:100700000AAA01A90CA8FFF7E4FEDDE90C70002697
:1007100009F10105834647E001204B4600904FF068
:1007200000470AAA01A90CA8FFF7D3FEDDE90DB026
:100730000C995D46002610B909F101000D18B9EBBE
:10074000050003D4C0F1FF3609F10105A5EB09004E
:100750002BE0B9F1010F01DA4FF001090020B9F1E6
:10076000110F0090484601DD112300E003460AAA5C
:1007700001A90CA8FFF7ADFEDDE90C704D4600267F
:100780008346207800070AD4AB4500DA5D4601A80D
:10079000012D04DD411911F8011C302907D04F4506
:1007A00002DA17F1040F04DA012082460FE06D1E11
:1007B000EEE7002F02DCED1B3E4403E0781CA8426C
:1007C00000DD7D1CB81B00F1010A4FF000472078C6
:1007D000000703D4AA4501DB4FF0FF3A0021B7F12F
:1007E000004F0DF143088DF8431024D002202B2335
:1007F000002F01DA7F422D230A21021EA0F1010001
:1008000000DC5FB197FBF1FC97FBF1F201FB1C7C74
:1008100017460CF1300C08F801CDEEE7A8F1010005
:1008200003702188090501D5452100E06521A0F16B
:10083000010800F8011C09980FA9A1EB0807FF1D8A
:1008400000B10120411901EBEA70A1693844081A8E
:10085000401EA0612078C00602D42046AFF300807D
:10086000099828B1D4E901219047206A401C2062F0
:100870002078C00622D52046AFF300801EE0002E6F
:1008800004DBB34502DD01A8805D00E03020D4E93F
:1008900001219047206A401C2062761CAAF10100C9
:1008A0005FEA000A0AD1FFF721FDC0680168405CD9
:1008B000D4E901219047206A401C2062281EA5F13E
:1008C0000105DCDC07E0D4E9012118F8010B9047B1
:1008D000206A401C2062381EA7F10107F3DC204685
:1008E000AFF30080032011B043E6000001694A1C09
:1008F00002610878704700B58FB0CDE90131002161
:10090000059105497944CDE9031011466846FFF782
:10091000F7FC0FB000BD0000E5FFFFFF30B5B0F100
:100920000A024FEA900E71F100034EEA817EB0EBAD
:100930000E0061EB91014FEA101E4EEA017E10EBB2
:100940000E0041EB11114FEA102E4EEA016E10EB32
:100950000E0041EB11214FEA104E4EEA014E10EB12
:100960000E0041EB1141401841F100014FEAD00067
:1009700040EA41704FEAD10110EB80054FEA810453
:1009800044EA907444EB01046D1944EB0404521BD7
:10099000A3414FF0000348BF0A3200D530BD401CD0
:1009A00041F1000130BD00002DE9F0411F46044631
:1009B00003260168072A01F4006004DB08B116A5CC
:1009C00005E016A503E008B115A500E015A521F086
:1009D00010002060A069C01EA0610FB1401EA06180
:1009E0002046AFF300804FB1D4E90121384690474B
:1009F000206A401C2062C01C206206E0206AFAE7E0
:100A0000D4E9012115F8010B9047761EF8D2204653
:100A1000AFF30080BDE8F0814E414E006E616E0084
:100A2000494E4600696E66002DE9F047814616463C
:100A30008AB0334878440DC88DE80D0030487844BA
:100A4000801C03AC0DC884E80D0041F69B300844BF
:100A5000372190FBF1F290FBF1F5A5F1800501FB48
:100A600012041B3C02D56442012000E00020DFF8A4
:100A700090A080460027FA44AAF1BE0A0DE0E007E4
:100A800009D03246684607EB47010AEB810100F0C6
:100A900033FB8DE8070064107F1C002CEFD1184F4A
:100AA0007F44AC3F18E0E80714D007EB04100DF1C9
:100AB000180A90E80E008AE80E00C068F04201D1E2
:100AC00098190890324606A903A800F015FB03AB5D
:100AD00083E807006D10641C002DE4D1324669469E
:100AE000B8F1000F03A802D000F0F2FA01E000F024
:100AF00003FBC9E90001C9F808200AB0BDE8F08786
:100B0000102E00007546FFF7F5FBAE46050069465E
:100B1000534620F00700854618B020B5FFF742FB8A
:100B2000BDE820404FF000064FF000074FF00008EE
:100B30004FF0000B21F00701AC46ACE8C009ACE86F
:100B4000C009ACE8C009ACE8C0098D46704710B5D3
:100B50000446AFF300802046BDE81040FFF70DBB10
:100B60004FF0013C50F8042B51F8043B9A4221D13C
:100B7000A2EB0C03934313EACC1317D150F8042BC8
:100B800051F8043B9A4215D1A2EB0C03934313EAAC
:100B9000CC130BD150F8042B51F8043B9A4209D1E5
:100BA000A2EB0C03934313EACC13DBD04FF000000D
:100BB000704700BFD01A01BAB1FA81F101F01801F3
:100BC00022FA01F0CB40C1F12001DBB2C0B2C01A61
:100BD0002CFA01F3D11A914311EAC311E6D17047FF
:100BE00001491820ABBEFEE72600020070475FEA0D
:100BF000400C08BF91F0000F4FEA8C234FEAC1224E
:100C000043EA51514FEA1C5018BF00F5F0404FEA3B
:100C1000300018BF41F000415FEA6C5C00F02980B1
:100C2000BCF1FF3F08BF40F080407047130C06BF87
:100C300012044FF0100C4FF0000C130E04BF120200
:100C40000CF1080C130F04BF12010CF1040C930FEC
:100C500004BF92000CF1020CD30F04BF52000CF140
:100C6000010C11464FF00002A0F11F00A0EB0C0098
:100C7000704711F0004F08BF704731F000413FF45A
:100C8000D5AF0B0C06BF09044FF0100C4FF0000C51
:100C90000B0E04BF09020CF1080C0B0F04BF090175
:100CA0000CF1040C8B0F04BF89000CF1020CCB0F6C
:100CB00004BF49000CF1010CCCF12003A0EB0C00A7
:100CC00022FA03F302FA0CF241EA030100F10100F7
:100CD000704720F07F4C80EA030023F07F47ACEBA5
:100CE000070303F57C5300F0004003F1FF032DE9F7
:100CF00080494FEA154B09B44FEA144325EA0B4EDD
:100D000024EA03480FF2042606EB132749083E782D
:100D10005FEA320203FB0667C7F5000707FB06F62A
:100D20004FEA54374FEAD64606F1020607FB066C37
:100D3000CCF1005C4FEA1C472CEA074C07FB06F499
:100D40000CFB06F504EB15464FEA961634BF00205F
:100D50004FF000404FEAD13706FB07FC4FEA1C4C2E
:100D60000CFB0BF7D21B03FB0CF761EB07010CFB31
:100D70000EF7B0EB074072EB17420CFB08F734BFDD
:100D8000A2EB0742B2EB074261EB17414FEA0C447A
:100D90004FEA910706FB07FC4FEA1C4C0CFB0BF7D4
:100DA000B0EBC74072EB573203FB0CF734BFA2EB3A
:100DB000C742B2EBC74261EB57310CFB0EF7B0EB09
:100DC000C70072EB57720CFB08F734BFA2EBC702E7
:100DD000B2EBC70261EB5771039F4FEA816141EAB1
:100DE000921104EBCC044FEAD1374FEA826206FB42
:100DF00007FC42EA90124FEA80604FEA1C4C0CFB61
:100E00000BF7D21B03FB0CF761EB07010CFB0EF792
:100E1000B0EB074072EB17420CFB08F734BFA2EBB4
:100E20000742B2EB074261EB17414FEA8C554FEA9C
:100E3000910704EB9C2406FB07FC4FEA1C4C0CFBBF
:100E40000BF7B0EBC74072EB573203FB0CF734BF24
:100E5000A2EBC742B2EBC74261EB57310CFB0EF776
:100E6000B0EBC70072EB57720CFB08F734BFA2EB74
:100E7000C702B2EBC70261EB577115EB4C254FEA85
:100E8000816141EA92114FEA82624FEAD13742EA28
:100E9000901206FB07FC44F100044FEA80604FEA21
:100EA0001C4C0CFB0BF7D21B03FB0CF761EB07018F
:100EB0000CFB0EF7B0EB074072EB17420CFB08F788
:100EC00034BFA2EB0742B2EB074261EB174115EBCF
:100ED0001C154FEA813141EA92414FEA823242EADF
:100EE00090424FEA80304FEA0C7644F1000448EA21
:100EF00003434EEA0B484FF0000EB2EB080C71EBC7
:100F0000030724BF624639464EEB0E0E4FF0000B2E
:100F10000018524149414BEB0B0BB2EB080C71EB43
:100F200003077BF1000B24BF624639464EEB0E0EE1
:100F30004FF0000B0018524149414BEB0B0BB2EB49
:100F4000080C71EB03077BF1000B24BF62463946A6
:100F50004EEB0E0E51EA020718BF46F0010616EBE3
:100F60000E7655F1000254F1000103D5BDE8890168
:100F7000BDE80088BDE88901BDE80048B6195241C6
:100F800041EB0101A3F10103704780807F7E7D7CEE
:100F90007B7A7978777676757473727171706F6E0B
:100FA0006E6D6C6C6B6A6A696868676666656464B6
:100FB000636362616160605F5F5E5E5D5D5C5C5B40
:100FC0005B5A5A59595858575756565555555454AF
:100FD000535352525251515050504F4F4F4E4E4D0D
:100FE0004D4D4C4C4C4B4B4B4A4A4A494949484859
:100FF0004847474747464646454545444444444399
:1010000043434342424242414141002B26D47700B0
:1010100021D01CB54FEA370703B44FF010004FF052
:1010200010014FF000000FBCBDE810400BF1010BA8
:10103000BBF1010F08BF5FEA170722BF12F10102DF
:1010400011F101014FF0004143F1000300F00040B5
:1010500043EA00007047F9D35708DAE746EA064644
:1010600013F1400F4FEA16461FDD13F1200FDFBFCB
:1010700016430A46002120335B42C8D0C3F1200743
:1010800046EA064602FA07F74FEA164646EA070618
:10109000C3F1200722FA03F201FA07F721FA03F15C
:1010A0004FF0000342EA0702B1E746EA020646EAC9
:1010B00006464FEA164646EA0106BCBF46EA064621
:1010C000360C4FF000034FF000024FF000019EE796
:1010D0002DE9C048934630B491E8380007C831EA9A
:1010E000400C48BF34EA430C03D5FFF7F2FDFFF78D
:1010F0008CFFF0BCBDE800882DE9C048934630B4B1
:1011000091E8380007C810F0804F08BF13F0804FF7
:1011100003D100F005F8FFF778FFF0BCBDE80088C8
:1011200020F07F4780EA030023F07F4C07EB0C039D
:10113000A3F57C5300F00040A3F1FE0392F0000FF2
:1011400000F0B38095F0000F00F077802DE90149A1
:101150004FEA11404FEA144621EA004800FB06FC22
:1011600024EA064708FB06F607FB08F800FB07F72A
:1011700018EB06484CEB164C4FEA124B18EB07489D
:101180004FEA15464CEB174022EA0B4E0BFB06FCD0
:1011900025EA06470EFB06F607FB0EFE0BFB07F7DC
:1011A0001EEB064E4CEB164C4FF000061EEB074EA6
:1011B0004CEB174B18EB0B0840F1000018EB0E0B33
:1011C00058EB000840F100008F1A4FF000013CBFBF
:1011D000C943661B14BFB5EB040C00213CBFC943D7
:1011E000F61B4FEA17444EEA8E0E27EA04454FEAF3
:1011F0001C4704FB07622CEA074C05FB07F70CFBB6
:1012000005F604FB0CFC16EB074642EB174216EB07
:101210000C4642EB1C421BEB060658EB0202414116
:1012200046EA9E0601D5BDE80189B619524141EB57
:101230000101A3F10103BDE801894FEA14454FEA1A
:10124000114724EA054621EA074C05FB07F406FB93
:1012500007F70CFB06F105FB0CFC11EB074144EB17
:1012600017444FEA124711EB0C4144EB1C4422EAAD
:10127000074C05FB07F206FB07F70CFB06F605FB20
:101280000CFC16EB074642EB174216EB0C4642EB02
:101290001C456A1854F1000148BF7047B619524105
:1012A00041EB0101A3F10103704795F0000F37D026
:1012B0004FEA11424FEA144721EA024624EA074C5A
:1012C00002FB07F106FB07F70CFB06F402FB0CFC24
:1012D00014EB074441EB17414FEA154714EB0C445C
:1012E00041EB1C4125EA074C02FB07F506FB07F71B
:1012F0000CFB06F602FB0CFC16EB074645EB17450C
:1013000016EB0C4645EB1C42121951F1000148BF87
:101310007047B619524141EB0101A3F10103704737
:101320004FEA14454FEA114724EA054621EA074CE3
:1013300005FB07F106FB07F70CFB06F24FF0000672
:1013400005FB0CFC12EB074241EB174112EB0C4280
:1013500051EB1C4148BF7047921841EB0101A3F1CA
:10136000010370470022064B5A601A46506201F191
:1013700032024243642392FBF3F2014B1A6370473B
:1013800000800B4000B500216420FFF7EBFF04480C
:10139000006820F400300249C439C1F8C40000BD1F
:1013A000C4C00F400948006840F400300749C43900
:1013B000C1F8C4000846D0F8AC0120F04040034911
:1013C000E831086002480349C8607047C4C00F4054
:1013D0004055040000C002400120014948607047A8
:1013E00000800B4070B500F05FF9044602F00EF883
:1013F00045490860002045490860012044490860CB
:1014000019E043480068401E424951F82010414805
:101410003F4A126840F822103D4A126850F82210E4
:101420003A48006801F086FE38490860384800688C
:10143000401E37490860364800680028E1DC324821
:10144000006834490860084601683048006801F0C7
:1014500071FE2E4908604FF080412C48006801F071
:10146000D7FE2A490860084601682B48006802F048
:1014700035F92A49086000F037FD29490860084617
:1014800000682849096888421AD025490968264A0F
:1014900012685143322201FB02F001F0B7FF064609
:1014A00022480168304601F0B3FE054601F072FFA4
:1014B000044621461E480068FFF754FFFFF78CFFE3
:1014C00017480068174908601A480068401C1A4904
:1014D000096890FBF1F201FB12001649086008460A
:1014E000006880B90948006801F0F8FD044622460A
:1014F0000B4612A11248FEF7DDFE1248006810B13B
:101500000F4800F05DFC70BD20000010500000107E
:10151000740000107C0000102C000010240000104B
:1015200038000010400000104C0000101C0000109B
:101530003C000010580000105400001025662C00DC
:10154000C80000106400001010B51748046804F0CB
:101550000200F0B11548406B4FF47A714843C0EB7C
:101560000010810012480068124A12685043124A63
:1015700012685043B1FBF0F01049086002200A499C
:10158000083108600420094908600D480068804758
:1015900009E004F0080030B1082003490831086070
:1015A00008480068804710BDE0CF0B4000C00B40EA
:1015B000AC000010B4000010B0000010B800001023
:1015C000A4000010A800001010B5024623480260D5
:1015D000234801602348006840F48020214BC43B2D
:1015E000C3F8C4001846D0F8AC0140F00100C3F8BD
:1015F000AC011846D0F8AC0120F00200C3F8AC01F1
:101600001948C068194B1843174BD8601846C06872
:10161000174B1840144BD86040F2DC50154BD86380
:101620001548006840F6B8335843124B9862134887
:101630000068986012480068124B18601F2000284C
:1016400009DB00F01F040123A3404409A40004F1B6
:10165000E024C4F8003100BF10BD0000A400001059
:10166000A8000010C4C00F4000C0024000410100AB
:10167000FF7DFDFF00C00B40AC000010C00000105B
:10168000BC000010DCCF0B4000B5002000F012F8C9
:101690000448006820F480200249C439C1F8C4001D
:1016A00000BD0000C4C00F40014800687047000042
:1016B000B80000100021034A11600349086009685E
:1016C00011607047DCCF0B40BC000010014908607E
:1016D00070470000B4000010074908600021074A65
:1016E00011600549096840F6B8325143044A9162D5
:1016F0000221024A11607047AC000010DCCF0B40A1
:1017000000C00B400021054A116008B1044908607F
:1017100004490968014A116070470000DCCF0B40A2
:10172000A4000010BC0000102DE9F04106460F4651
:10173000154600241B48D0F8008000F03BFB1948F8
:1017400000681949086000BF184817490968405CDB
:10175000B042F9D100201649087000F025FB11486D
:101760000068A0EB0804002C00DA8034AC420EDDE7
:101770002C460C480068401B0E490860084600686B
:10178000002807DA084600688030086002E009484F
:10179000C0F800802146384600F0DAFA2046BDE85D
:1017A000F081000098000010A00000107A010010E5
:1017B0008C0000109C0000102DE9F0476448006880
:1017C000C0F3016003287DD161488430006800F0D7
:1017D000030030B1012830D0022859D003282BD182
:1017E00000E000BF5A480068C0F30740441C0221D3
:1017F00057488838D0F88800C0F30E00401CA1FB81
:101800000001544B4FF0000CA0FB037901FB039146
:1018100000FB0C11224663463846FEF7D3FC054612
:101820004B487C300068C0B2441C22460023284646
:10183000FEF7C8FC4849086056E045480068C0F318
:101840000740441C022142488838D0F88800C0F381
:101850000E00401CA1FB0010404A4FF0000CA1FB01
:10186000027900FB029001FB0C01224663463846D8
:10187000FEF7A8FC054636487C300068C0B2441C20
:10188000224600232846FEF79DFC334908602BE0E2
:101890002F480068C0F30740441C02212C488838B8
:1018A000D0F88800C0F30E00401CA1FB00124FF4DA
:1018B00000400023A1FB007902FB009001FB030123
:1018C000224600E011E03846FEF77CFC0546204841
:1018D0007C300068C0B2441C224600232846FEF734
:1018E00071FC1D49086000BF30E019488430006871
:1018F00000F0030030B1012810D0022819D00328CD
:1019000023D100E000BF12487C300068C0B2401C08
:101910001049B1FBF0F01049086016E00C487C302B
:101920000068C0B2401C0D49B1FBF0F00A490860E4
:101930000BE007487C300068C0B2401C4FF4004107
:10194000B1FBF0F00449086000BF00BFBDE8F087BC
:1019500088C00F4000093D00C4000010001BB70004
:101960002020194908601948D0F8A00100F0200093
:1019700030B100BF1448006800F040000028F9D0E2
:10198000032011499C39086040201049C1F8A80182
:1019900000200D490C31086001200B499439086082
:1019A0000020091F08600A480849C4310860002067
:1019B0000649C1F8C8010846006820F4704040F4A8
:1019C0008040086070470000A0C10F4000C00F4079
:1019D000DE8728042DE9F04F8FB004460D464FF006
:1019E00080400D904FF0130B00200C900026012733
:1019F000062195FBF1F1284605EBD0725210A5EBBC
:101A0000420201EB82010C9105EBD07149100322D7
:101A100091FBF2F302FB1311012902D0022908D134
:101A200003E00C9808300C9003E00C9818300C90F0
:101A300000BF00BF6C48007B00F0D0010C98084448
:101A4000694908730846007B40F080000873642CE5
:101A500003D34FF22440844201D94FF4165420019D
:101A600001F0CEF802460B46CDE9060100205F49A1
:101A700000F0ECFECDE90A01200101F0C1F80246B8
:101A80000B46CDE900010020584900F0DFFE00229E
:101A9000574BCDE9020100F025FECDE9040101F02C
:101AA00069F8079001F095F8CDE90801DDE90A230E
:101AB00001F024F804D120014E49B1FBF0FB84E091
:101AC000DFF8349145E0200101F0B8FC4946099067
:101AD00001F0FCFC01460A90484801F099FB0B908C
:101AE00001F074FC8346210101FB0BF001F088F842
:101AF00002460B46CDE9080100203C4900F0A6FE55
:101B0000CDE90A0100F0BCFD8046404601F0E6FA4E
:101B10004FF066323A4BCDE90A0101F085F80AD25E
:101B2000404601F0DBFA374A374BCDE90A0101F0B4
:101B3000B5F900D213E0484601F0D0FA314A334BF0
:101B4000CDE9080100F0CEFDCDE90A0100F098FDD5
:101B500081464FF08041484601F084FCB3D300BF7A
:101B6000012630E001272BE0384601F067FC0990A0
:101B7000304601F063FC0890099901F049FB4FF0F1
:101B80007E510A9001F0D6FA41460B9001F09BFD80
:101B900082460021504601F065FC04D251461C48A3
:101BA00001F094FC824650460D9901F05BFC06D290
:101BB000CDF834A006EB07100B49283108707F1CC4
:101BC000102FD1D3761C0F2ECCD3074981F800B04B
:101BD0004FEA1B2008710846007B00F07F00087365
:101BE0000FB0BDE8F08F000000C0004060E3464148
:101BF0000000E03FC0C62D00CDCC8C3F001B374A13
:101C00006666FE3F9A9999999999F13F9999B93FDA
:101C1000000080BF2948816801F00200022830D10D
:101C2000FF20274A1070274A1268501CC21700EB89
:101C30005262D211A0EBC212234B1B689A421CD0F5
:101C4000204A1268501CC21700EB5262D211A0EB5E
:101C5000C2121C4B1A601D481A461268805C174A53
:101C600010770020194A1B68D054FF20184A1070C2
:101C70001248007F114A10701FE00020144A1070B3
:101C80001BE001F00400042817D10C480078114A29
:101C9000114B1B68D05410480068104A10600E4A5F
:101CA0001268501CC21700EB5262D211A0EBC21294
:101CB000094B1A60FF200A4A1070704700C00040AC
:101CC0008D0000109400001090000010FA00001029
:101CD0008E0000107A01001098000010A000001083
:101CE0008C0000101748006840F008001549C439FE
:101CF000C1F8C4001448006820F0F00012490860E0
:101D00000846006840F05000086083200F490873BF
:101D10000020087113200870032008730720087240
:101D2000032048600520002809DB00F01F02012184
:101D300091404209920002F1E022C2F8001100BF76
:101D400070470000C4C00F4000C0024000C0004007
:101D500030B502460B4600210AB9481E30BD10E0DE
:101D60000E480F4C2468005D50540D4C2468601CD4
:101D7000C41700EB5464E411A0EBC414084D2C60AC
:101D8000491C07480068074C2468A04201D09942CA
:101D9000E6DB002050540846E0E700007A0100101E
:101DA0009C00001098000010022001494860704714
:101DB00000C00040032001494860704700C0004057
:101DC00070B505462846FEF70BFB064615B96FF0C1
:101DD000020070BD802E02DB6FF00100F9E724499C
:101DE00009683144481CC11700EB5161C911A0EBCF
:101DF000C111204A515C11B14FF0FF30E9E70024D6
:101E000010E0295D1B481A4A126881541849096874
:101E1000481CC11700EB5161C911A0EBC111144A54
:101E20001160641CB442ECDB13480078E8B9134934
:101E30000968481CC11700EB5161C911A0EBC11121
:101E40000E4A11600B4811460968405C0C4908773E
:101E50000020084912688854FF2007490870084884
:101E6000007F074908700220B3E70120B1E70000B6
:101E700090000010FA0000108E0000109400001076
:101E800000C000400B480078FF2810D10A490968BB
:101E9000481CC11700EB5161C911A0EBC111074AE1
:101EA0001268914201D1022070470120FCE7002016
:101EB000FAE700008E00001094000010900000105F
:101EC000490050EAC12018BF04204A0D18BF40F055
:101ED000010040F2FF72B2EB515F08BF40F0020018
:101EE000012808BF0520704770B54548016845487E
:101EF000006801F0EBFA054643480168284601F006
:101F0000E5FA044641480168204601F013F93F49CB
:101F100008603D4801683E48006801F0D7FA3D4935
:101F200008603D4801683848006801F0D7FB054665
:101F30003A480168284601F0C9FA04463048016869
:101F4000204601F065F9364908602F48006832499B
:101F50000860344801682D48006801F083FB03D213
:101F600030480068294908602E48006880F0004425
:101F700026480168204601F075FB05D22948006813
:101F800080F0004021490860224801681F4800682D
:101F900001F0D0F8054622480168284601F0CAF849
:101FA000044601F0F7F9204908600846006801F08E
:101FB0002DFA04461B480168204601F053FB06D267
:101FC0001848006801F0E6F91749086015E015485F
:101FD000006880F000441448006801F017FA0546D4
:101FE000214601F03FFA08D20E48006880F0004414
:101FF000204601F0CFF90C4908600B48006870BD1D
:102000000C0000100400001024000010100000104C
:10201000000000101400001028000010080000103C
:10202000180000101C000010340000100248006866
:10203000404201490860704748000010FFF790FCDB
:10204000FFF7BAFBFFF74EFE12214FF41650FFF7D1
:10205000C1FCB248B2490860B24801684FF07E50F6
:1020600001F0D6F8044601F095F9AF490860FFF792
:1020700099F9AE49AA480068FFF7A6FAAC4800688B
:10208000FFF724FBAB49A748006801F01FFA05469B
:1020900001F09CF90446FFF71FFB37E10222A64935
:1020A0006720FFF741FBA4480078A449087000208E
:1020B000A3490860A1480078303808283DD2DFE8FD
:1020C00000F0FD043D506378A8D89EA1A948FEF712
:1020D000F1F800BFA748FFF773FE0028FAD000BF51
:1020E000FFF7D0FE0028FBD10522A2496720FFF7A9
:1020F0001BFBA149086008460068411E9D4800F08E
:1021000089FA9E49086008460068002815DB0846E1
:10211000006801F07BF9044699480168204601F007
:10212000A1F90AD29548006801F070F99549086054
:1021300000209549086095490860E3E094A18D4826
:10214000FEF7B8F800BF8B48FFF73AFE0028FAD038
:1021500000BFFFF797FE0028FBD19348FFF7D2FAA4
:10216000D0E092A18348FEF7A5F800BF8148FFF7B1
:1021700027FE0028FAD000BFFFF784FE0028FBD11D
:102180006648FFF7BFFABDE08CA17A48FEF792F8E7
:1021900000BF7848FFF714FE0028FAD000BFFFF711
:1021A00071FE0028FBD18C48006840428A490860D3
:1021B000A8E08A48006800F091FF044622460B46DA
:1021C00087A16C48FEF776F800BF6A48FFF7F8FD74
:1021D0000028FAD000BFFFF755FE0028FBD10C22E3
:1021E00064496720FFF7A0FA634908600846006861
:1021F000411E604800F0AEF9814908600021804826
:10220000006801F02FFA03D87D4800687349086020
:1022100078E07C48006800F061FF044622460B46E7
:1022200079A15448FEF746F800BF5248FFF7C8FDB1
:102230000028FAD000BFFFF725FE0028FBD10C22B2
:102240004C496720FFF770FA4B4908600846006860
:10225000411E484800F07EF969490860002168483D
:10226000006801F0FFF903D8654800686549086017
:1022700048E06D48006800F031FF044622460B46F6
:102280006AA13C48FEF716F800BF3A48FFF798FDF0
:102290000028FAD000BFFFF7F5FD0028FBD10C2283
:1022A00034496720FFF740FA334908600846006860
:1022B000411E304800F04EF9514900E00BE0086043
:1022C00000214F48006801F0CDF903D84C48006860
:1022D0005549086016E05DA12648FDF7EBFF00BFF9
:1022E0002448FFF76DFD0028FAD000BFFFF7CAFDB4
:1022F0000028FBD1FFF7C8F9FFF744F8012059493E
:10230000086000BF00BF01200D4908605548006803
:1023100001287FF4C3AE00BFFEE70000E513000014
:10232000840000100C000010540000102D2000004C
:102330004400001000007A445C00001060000010AF
:10234000640000100D0A20496E707574204E657788
:10235000205265666572656E63652052504D202877
:10236000666F6C6C6F776564206279206729200D39
:102370000A000000C8000010680000106C00001087
:10238000300000102C000010580000105000001009
:102390000D0A205573696E67204F70656E204C6F73
:1023A0006F70200D0A000000692400000D0A2055FE
:1023B00073696E6720504944200D0A000D0A2052AF
:1023C0006576657273696E672044697265637469C6
:1023D0006F6E200D0A0000004C000010000000107D
:1023E0000D0A20496E707574206B5F70202863752C
:1023F0007272656E746C7920256629200D0A0000C2
:1024000078000010040000100D0A20496E707574E9
:10241000206B5F69202863757272656E746C792019
:10242000256629200D0A0000080000100D0A204929
:102430006E707574206B5F64202863757272656EB0
:10244000746C7920256629200D0A00000D0A20539E
:10245000746F7070696E672050726F6772616D2063
:102460000D0A0000700000102DE9F843FFF71CF979
:10247000044600F0CBFF2849086028492848006836
:1024800001F024F8054627480168284600F0C0FE00
:10249000044600F07FFF244908600846006823498D
:1024A000096888420BD0224800681F4A126800FB66
:1024B00002F120480068FEF755FFFEF78DFF1A482D
:1024C00000681A49086018490968194A1268514396
:1024D000322201FB02F000F099FF804616480168A5
:1024E000404600F095FE054600F054FF04461348B0
:1024F000006800F0F3FD064632460B4610A1134873
:102500000094FDF7D7FE1248006810B10F48FFF79E
:1025100057FCBDE8F883000020000010000048428E
:102520002C00001030000010380000104000001097
:102530004C0000103C0000101C0000105000001067
:1025400025662C202564200D0A000000C80000101C
:10255000640000102DE9FF5F05460E46B1464FF0BE
:10256000000A0020039002904FF07E5B1DB92648C0
:1025700004B0BDE8F09F0EB90020F9E7761E34469E
:1025800023E0285D2E2807D1A1460AF1010ABAF1FD
:10259000010F09DD1C48EBE7285D302802DB285DD0
:1025A000392801DD1848E3E7BAF1000F0CD158468D
:1025B00000F094FD0746154A154B00F071FBCDE97C
:1025C000000100F05DF88346641E002CD9DA49460C
:1025D000284600F01FF80390A6EB090109F101025B
:1025E000A81800F017F80290029800F00FFF80463C
:1025F000594600F06BFF0746039800F007FF394685
:10260000019000F097FDB3E7000080BF9A99999977
:102610009999B93F30B50246012300240AB9981EA2
:1026200030BD10E0505C30280ADB505C392807DCF4
:10263000505C303800FB034403EB8300430002E0AE
:102640004FF0FF30ECE7081EA1F10101EAD120466E
:10265000E6E7000010B500290AD00878002807D066
:1026600005487844FEF77CFA002801D0002010BD10
:102670000248784410BD00001E120000161200002F
:1026800021F00042A2F16052B2F5801F01F0004338
:1026900028BFD2F17F6C0BD95FEA001C43EAC2026B
:1026A00042EB507018BF704728BF20F00100704700
:1026B000B2F5801FBCBF184670474FEA410C1CF5AD
:1026C000001F02D2084600F0C8BF70B500F092FBB0
:1026D00000000089FFF7F6BF4FF00040A0F5800032
:1026E0007047000010B591EA030F48BF83F0004324
:1026F00000F11284841A71EB030C05D2121943EB1A
:102700000C03001B61EB0C01DFF824E14FEA1154CC
:10271000A4EB135C1EEA430F18BF9EEA445F73D01C
:1027200023EA0E03DCF1200E21EA045143F4801366
:1027300032D322FA0CFE10EB0E0023FA0CFE41EB12
:102740000E01CCF1200E03FA0EFE10EB0E0051F13B
:102750000001B1F5801FCCF1200E32D201EB045103
:1027600012FA0EF2BDE8104058BF7047401C38BF47
:102770005FEA420218BF7047002814BF20F0010032
:1027800041F100014FEA410313F5001F38BF7047C4
:10279000A1F1C04100F07CBB012A43EB0302ACF184
:1027A000200CDCF11F0E32BF4FF0000E23FA0CF3A9
:1027B00010EB030041EB0451B4EB115FD0D0A1EB5F
:1027C000045101F5801149085FEA300001EB045122
:1027D0000ED350F1000038BF12FA0EFE08D1BDE84A
:1027E0001040C9E7401C38BF5FEA4202CAD1C3E7C4
:1027F000BDE810404FEA410313F5001F38BF704792
:10280000A1F1C04100F044BB9EEA445F08D011EA48
:102810005E0FBDE8104004BF01F00041002070478A
:10282000BDE8104070B500F0E5FA00BF64FBBE3EA5
:102830000000E0FF491058BFC1F140415B1058BF94
:10284000C3F140438B42EFF3008070472DE9C04154
:1028500030B4DFF8A0C23CEA111418BF3CEA1314EC
:1028600000F0EC8081EA03051CEA111444EAD574F7
:1028700018BF1CEA131500F0C780A4EB05044FF045
:10288000004545EAC12145EAC32341EA505143EAE4
:10289000525304F17F74994204F500344FEAC0208A
:1028A0004FEAC22208BF904200F09C804FEA1365B5
:1028B0000FF24016765D4FEA134506FB05F7C7F1A8
:1028C000807706FB07F74FEAD737A7FB0368764206
:1028D000C8F58038A7FB06CE38BFA8F1010807FB72
:1028E00008E64FF0000EA6FB028CE6FB03CEDCF1FF
:1028F000000CCEF1004E38BFAEF1010EA6FB0C5815
:102900004FF000074FF00005E6FB0E87A1FB08C65D
:10291000A0FB07CE16EB0E0645F10005E1FB0765AF
:1029200015F1E04E7EBFA4F580345FEA46066D41A6
:1029300016F1800745F100054FEA17274FEA0666B2
:1029400047EA0567A6F1DE46B6F1805F4FEA152536
:102950001FD9384624F0010C05EBC471BCF1FE6FA1
:1029600001EB0C1102D8F0BCBDE8008124425CBF31
:1029700001F5801E9EEAC47F02D4F0BCBDE8008150
:10298000244238D4F0BCA1F1C041BDE8004100F0C0
:102990007FBA4FEAD22242EA43524FEAD323A7FB3F
:1029A00002864FEAD02040EA415007FB03661EEA48
:1029B0000E0F4FEAD12105FB026658BFA6EB005669
:1029C000B6EB00564FEA520E4EEAC37E18EB0E0EDF
:1029D00056EB530EBDD518EB02085E417F1C55F136
:1029E0000005B6E74FF480154FF000074FF00006E2
:1029F0004FF00008ADE7F0BC4FF0000001F1C0411E
:102A000001F00041BDE8008111EA0C1F0CEA13152A
:102A100000D00CE013EA0C1F00F025804FF00000FE
:102A2000F0BC81EA030101F00041BDE80081F0BC87
:102A3000BDE8004181EA030100F02ABAF0BCBDE81C
:102A4000004170B500F0D6F9097EFC3E00F007B8F1
:102A500081EA03014FF0000001F00041704781EA74
:102A6000030100F015BAF0BCBDE800414FF00000D2
:102A700021497047FFFDFBF9F7F5F4F2F0EEEDEBBD
:102A8000E9E8E6E4E3E1E0DEDDDBDAD8D7D5D4D36C
:102A9000D1D0CFCDCCCBCAC8C7C6C5C4C2C1C0BFB8
:102AA000BEBDBCBBBAB9B8B7B6B5B4B3B2B1B0AFBE
:102AB000AEADACABAAA9A8A8A7A6A5A4A3A3A2A1A2
:102AC000A09F9F9E9D9C9C9B9A999998979796955D
:102AD00095949393929191908F8F8E8E8D8C8C8BF9
:102AE0008B8A898988888787868585848483838281
:102AF000828181800000FF070000F87F51EA030C0B
:102B000017D41CF5801F58BFBCF5801F00F106804C
:102B1000994218BF704708BF9042704707D711F518
:102B2000801F58BF13F5801F19D4994270478942FE
:102B300070471CF5801F08D5BCF5801FF7D58B4268
:102B400018BF704708BF824270474FF4001C1CEB4F
:102B5000410F38BF1CEB430F01D28B42704770B559
:102B600000F048F9922449004FF000514FF0805393
:102B7000FFF760BE4FEA41034FEA5353A3F580636A
:102B8000D3F11E03C8BFD3F1210C0CDD4FF000427E
:102B900042EAC12242EA505232FA03FC8CEAE17C5A
:102BA000ACEBE1707047102BC4BF0020704703F5F9
:102BB000787CBCF1FF3F04D06FF0004282EA210034
:102BC000704770B500F016F94992248000207047D4
:102BD000F2E710F0004248BF4042B0FA80F310FA2A
:102BE00003F10AD0C3F11D0303F580634FEA41509E
:102BF00002EB035202EBD12170474FF00000704707
:102C0000B0FA80F310FA03F10AD0C3F11D0303F503
:102C100080634FEA41504FEA035202EBD1217047E3
:102C20004FF000007047000051EA030C17D41CF568
:102C3000801F58BFBCF5801F00F10680994218BF65
:102C4000704708BF9042704707D711F5801F58BFE3
:102C500013F5801F19D499427047894270471CF5BB
:102C6000801F08D5BCF5801FF7D58B4218BF704771
:102C700008BF824270474FF4001C1CEB410F38BF65
:102C80001CEB430F01D28B42704770B500F0B2F8D5
:102C9000922449004FF000514FF08053FFF7CABD16
:102CA000DFF848C170B51CEA111E1EBF1CEA1315DF
:102CB0009EEA0C0F95EA0C0F00F06F8081EA030486
:102CC00023EA4C134EEAD47E21EA4C1141F48011E0
:102CD00043F48013AE44A1FB024CA0FB0365AEF1AC
:102CE0007F7E361955EB0C05A1FB034C4CF100031C
:102CF000A0FB021C16EB0C06654153F100030942D0
:102D000018BF46F0010613F4007F0BD14FEA0331E0
:102D10004FEA0530340341EA155140EA16506FF08E
:102D200003020AE04FEAC3214FEAC520F40241EA58
:102D3000555140EA56506FF0020202EB2E4201EB71
:102D4000025585EACE710AD05FEA440C18BF24F020
:102D5000004450F1000041F1000120EAD47040F23B
:102D6000FE7C624500D270BDA84214BF4FF0804483
:102D70004FF04044002E08BF0024BEF1806FA8BF72
:102D8000A1F1C041BDE8704080F282804FF00000A8
:102D900001F1C04101F0004170479EEA0C0F0CEABE
:102DA000131518BF95EA0C0F06D04FF0000081EA0A
:102DB000030E0EF0004170BD00F01CF88900013ECA
:102DC00000F007B800F009B84FEA430C5FEA5C5C1A
:102DD00008D081EA030100F05BB84FEA410C5FEADA
:102DE0005C5CF6D14FF00000014970470000FF071E
:102DF0000000F87F0EF1020E2EF0030E5EF8046B59
:102E0000364205D4012A43EB030515F5001F12D8FD
:102E1000012841EB010C1CF5001F0CD80ED14FEA24
:102E2000D17C15F5001F0CEB4C0C0CF1020C08BF0B
:102E30004CEBD37C04E04FF0080C01E04FEAD37C6C
:102E40000CEB4C0526FA05F606F00706B6F1040C65
:102E500006D20EEB860CBDE870404CF0010C6047CA
:102E6000DFE80CF0090B02024FF000414FF00000C8
:102E7000A1F5002170BD19461046012851EB01044F
:102E800018BFD4F5001484BF002001F0004170BDCC
:102E90000808A0F500114FEA3101704753EA010C10
:102EA00017D41CF5801F58BFBCF5801F00F10680A9
:102EB0008B4218BF704708BF8242704707D713F58F
:102EC000801F58BF11F5801F19D48B4270479B4259
:102ED00070471CF5801F08D5BCF5801FF7D59942B7
:102EE00018BF704708BF904270474FF4001C1CEB9E
:102EF000430F38BF1CEB410F01D2994270470FB40A
:102F00000CBC03BCFFF7C1BE10B591EA030F48BF6C
:102F100083F000433FF5EEAB841A71EB030C07D24C
:102F200012198CF0004C43EB0C03001B61EB0C01FD
:102F3000DFF8A4E14FEA1154A4EB135C1EEA430F3F
:102F400018BF9EEA445F00F0B08023EA6E0352424D
:102F500021EA0451C3EB6E0338BF5B1EDCF1200E87
:102F600025D322FA0CFE10EB0E0043FA0CFE41EBC7
:102F70000E01CCF1200E03FA0EFE10EB0E0051F103
:102F80000001CCF1200E29D412FA0EF201EB04510B
:102F9000BDE8104058BF7047401C1CBFB2F1004F45
:102FA000704700280CBF491C20F00100704712EB4D
:102FB000020E43EB030218BF4FF0010E4EEA42022D
:102FC000ACF1200CDCF11E0E54D943FA0CFE10EBD0
:102FD0000E0051F1FF31CCF11E0ED5D50EF1010ED0
:102FE00012FA0EFE404141EB010101EB445C5FEA45
:102FF0005C5C10D910EBDE7001EB045138BFBEF100
:10300000004FBDE8104018BF704700280CBF491C96
:1030100020F00100704730D24FEAD42C11F5001196
:1030200024F400641BD0B1FA81F20B3AA41AA41E56
:10303000D2F12003914030FA03F31943904001EBA1
:10304000CC71002C01EB0451BDE81040A8BF7047C3
:1030500001F1C0414FF0000001F000417047B0FAAB
:1030600080F310FA03F100D110BDE41A173C4805B3
:10307000C90AE4E701EB045110BD491001EB04510A
:10308000BDE810404FEA300002E04FF00001704709
:103090004A0008BF0042F8D0B2F5001F28BF7047B1
:1030A00001F000414FF0000070479EEA445F07D0F6
:1030B00011EA5E0FBDE8104004BF002100207047F8
:1030C000BDE8104070B5FFF795FE00BF40DFF63E4B
:1030D00083F00041104670470000E0FF43004FEAD4
:1030E000D30C4FEA3C0C43401FBF40070CF160512A
:1030F00013F0FE4F70471CF0006F03D100200CF05E
:10310000004170470CF0004343EA507010B540EAAC
:10311000CC0000F05CFA00BF000000924FEA000112
:10312000FFF7B6BE4FF000414FF00000A1F50021BF
:103130007047000090EA010F48BF81F0004100F1A4
:10314000D482421A3CBF801A89184FEAD0524FF0FD
:103150007F4C1CEA410FA2EBD15318BF9CEA026FCF
:1031600000F03B804FF0004C4CEA00204CEA01217B
:1031700021FA03FC10EB0C0C1ED202F1FF325FEAC5
:103180001C2040EBC25038BF70471CF07F0F4FEA45
:10319000400C18BFBCF17F4F38BF7047C3F120030C
:1031A000994008BF20F00100BCF17F4F38BF704745
:1031B000A0F1C04000F051BA4FEA3C00000A40EBD9
:1031C000C25028BF1CF0FF0F4FEA400CE6D018BFDA
:1031D000BCF17F4F38BF7047EAE79CEA026F05D029
:1031E00010EA5C0F08BF00F00040704710B500F017
:1031F000EEF900BF64FBBE3E401058BFC0F1404036
:10320000491058BFC1F140418142EFF3008070473F
:103210004FF47F0C1CEAD0121EBF1CEAD11392EAB5
:103220000C0F93EA0C0F00F0858090EA010F48BF65
:1032300042F4807240F4000C41F400002CF07F4115
:1032400020F07F4000B58142A2EB03020FF2081C80
:10325000ACEB504EC0F100009EF800E04FEA4E0E7D
:1032600000FB0EFC38BF49004FEA2C1C02F5FA02A5
:103270000CFB0EF34FEACE1E4FEA112C4FEAC12190
:103280000EEB635E42EB22420EFB0CFC4FEA1C533A
:1032900000FB03114FEA112C4FEA01310EFB0CFC2D
:1032A0004FEADC4C00FB0C11C14228BF09184CEB63
:1032B00003335DF804EB10EB410143EBC250B2F570
:1032C0007C0F38BF704729D512F0F00F1CBF00F1FA
:1032D000C04000F00040704700818283848586876B
:1032E00088898B8C8D8E8F919293959697999A9CC5
:1032F0009D9FA0A2A3A5A7A8AAACAEB0B2B3B5B734
:10330000B9BCBEC0C2C5C7C9CCCED1D4D7D9DCDF09
:10331000E2E6E9ECF0F3F7FAFE0000004FEA400CB9
:103320000CF1807CBCF17E4F28BF7047B0F1C040EB
:1033300000F093B990EA010F0CEAD11348BF42F4B0
:103340008072624538BF634507D213F47F0F16D0F1
:1033500080EA010000F00040704710B500F037F936
:10336000097EFC3E00F005B880EA010000F0004054
:10337000704780EA010000F0004000F06EB912F4DE
:103380007F0F04BF0248704780EA010000F065B972
:103390000000C07F41000B0ED3F19E0208D950F40B
:1033A00000034FEA032323FA02F048BF404270476C
:1033B00010B500F00CF900BF49922480002070473E
:1033C0006FF0004282EA200070470000C10DD1F189
:1033D0009E0206DB4FEA002343F0004323FA02F08B
:1033E0007047004207D54FEA4001B1F1FE4F02D2CB
:1033F0004FF00000704710B500F0E9F849922480C2
:10340000002070476FEA20007047000010F0004174
:1034100048BF4042B0FA80F310FA03F2C3F19D03B3
:103420000BD051EAC35101EB1220530638BF70474D
:1034300000F1010008BF20F001007047B0FA80F3EE
:1034400010FA03F2C3F19D030AD0D90501EB122053
:10345000530638BF704700F1010008BF20F001009B
:103460007047000050EA010C00F113801CF5000FBA
:1034700058BFBCF5000F01D48842704707D710F53C
:10348000000F58BF11F5000F15D4884270478942CC
:1034900070471CF5000F04D5BCF5000FF7D581422D
:1034A00070474FF0807C1CEB400F38BF1CEB410F86
:1034B00001D28142704710B500F089F8922449008A
:1034C0004FF000504FF08051FFF796BE4FF47F0C45
:1034D0001CEAD0121EBF1CEAD11392EA0C0F93EA29
:1034E0000C0F00F0478090EA010F48BF42F4807251
:1034F0004FF0004C4CEA00204CEA012102EB0302A1
:10350000A0FB0113A2F50002002918BF43F001033C
:103510005B0028BF4FEA330342EB22425FEA132CE1
:103520004CEBC2502EBFBCEB436FB2F57C0F704723
:103530004FEA036CBCF1004F08BF20F00100B2F568
:103540007C0F38BF70470BD582F0FF0212F5803F29
:10355000C8BF704700F1C040D8BF00F000407047BE
:1035600000F5000C5FEA4C0C48BF7047B0F1C0405A
:1035700000F073B890EA010F0CEAD11348BF42F48F
:103580008072624538BF634504D280EA010000F0D2
:103590000040704710B500F01AF800BF8900013EE6
:1035A00000F007B800F009B85FEA410C5FEA1C6C54
:1035B00008D080EA010000F050B85FEA400C5FEAF2
:1035C0001C6CF6D14FF00040A0F5800070470EF162
:1035D000020E2EF0030E5EF8044B244204D44FEA90
:1035E0004102B2F17F4F11D84FEA4003B3F17F4F50
:1035F0000CD80ED14FEAD07CB2F17F4F0CEB4C0CC3
:103600000CF1020C08BF4CEBD17C04E04FF0080C2D
:1036100001E04FEAD17C0CEB4C0324FA03F404F0F4
:103620000704B4F1040C06D20EEB840CBDE8104084
:103630004CF0010C6047DFE80CF0070802024FF085
:103640000040A0F5800010BD0846420018BFD2F12E
:10365000807288BF00F0004010BDFF2141EAD050C9
:10366000C005704751EA000C00F113801CF5000FF3
:1036700058BFBCF5000F01D48142704707D711F540
:10368000000F58BF10F5000F15D4814270478942D2
:1036900070471CF5000F04D5BCF5000FF7D5884224
:1036A00070474FF0807C1CEB410F38BF1CEB400F84
:1036B00001D28842704780EA010081EA000180EA75
:1036C0000100FFF7F8BE80F0004090EA010F7FF59F
:1036D00038AD81F0004100F008B8000090EA010F19
:1036E00048BF81F000413FF52CAD421A04D882F06A
:1036F0000042A0EB020011444FEAD0524FF07F4C41
:103700001CEA410FA2EBD15318BF9CEA026F4AD0CA
:103710004FF0004C4CEA00204CEA012121FA03FC56
:10372000B0EB0C0C0FD412F0FE0F36D05FEA4C0059
:103730001DD5001240EBC25038BF70471CF03F0F40
:1037400018BF70470BE0A2F101025FEA1C2040EBBA
:10375000C25038BF70471CF07F0F18BF7047C3F1CD
:103760002003994014BF401E20F0010070478008DC
:103770004FEA122308BF7047B0FA80FCA2EB0C029C
:10378000CCF1280C60FA0CF093EA122F04BF00EB86
:10379000C25070474FEAC3707047130A5FEADC10EB
:1037A00008BF7047F6E79CEA026F04D010EA5C0F8E
:1037B00008BF0020704710B5FFF709FF40DFF63E55
:1037C00081F000407047FCF75ABF00000240000043
:1037D000000000A00000000005400000000000C83C
:1037E000000000000C4000000000409C00000000B1
:1037F000194000000020BCBE000000003440000062
:10380000BFC91B8E00000004B5400000504BCFD054
:103810006607E2CF010000006C4100003E8251AA21
:10382000DFEEA73401000000D9420000DCB5A0E2C1
:103830003A301F97FFFFFFFFB4450000FD25A0C8E9
:10384000E9A3C14FFFFFFFFFFF3F00000000008022
:1038500000000000FF3F00000000008000000000AA
:103860009C38000000000010C800000008010000A3
:1038700064390000C8000010980300002401000013
:103880001C00000043000000F8FFFFFF0C000000D8
:103890000E0000000F0000002E0000000000A041FC
:1038A0000000FA4300004040CDCC4C3E0000000038
:1038B000000000000000000000FF7F470000000043
:1038C0000000000000000000000048420000F0423C
:1038D0000000000000000000C80000000000000020
:1038E00014000000010000000100000000000000C2
:1038F00000000000000000006161610000000000A5
:1039000001000000000000000000000000000000B6
:1039100000000000000000000000000000000000A7
:103920000000000000000000000000000100000096
:103930000000000000000000000000000000000087
:103940000000000000000000FA0000000400000079
:10395000140000000000000002000000040000004D
:04396000C0C62D00B0
:04000005000001896D
:00000001FF
